:100000000A128A11F52FFF1B0D2883137F188317FF
:100010000008840A0319FF0A080000308A00040857
:10002000840A82070034013400340A340034643412
:100030000034E834033410342734543445344D3418
:1000400050344534523441345434553452344134AC
:100050003A34203400344434493447344934543435
:1000600041344C3445345334203432340034503429
:1000700052344F344334453453344F3420344F34A6
:100080004B340034483455344D34453444344134D1
:1000900044343A34203400345434493445344D34F3
:1000A00050344F343A3400344834413452344934B3
:1000B00054344F344C340034543449344D34453482
:1000C00052340034533445344734003425346934D1
:0200D0000034FA
:1000E20064008001840A040603190034040672289D
:1000F200730803198128720871047004031D94287F
:100102000030F0000030F1000030F2000800013051
:10011200FF007F08F30701300310F20CF10CF00C22
:10012200FF3E031D8D28FE3072050319AF28882873
:100132000130FF007F08F3070130F0070030031899
:100142000130F107003003180130F20701300310CB
:10015200F20CF10CF00CFF3E031DA828FF307205D3
:100162000319C228992802307302031CC4280130E3
:10017200F30201300310F00DF10DF20DFF3E031DED
:10018200BB28F11FB4287318CC28FF30F0057F304C
:10019200F105FF30F2050310F30C7308F500F601C8
:1001A200F70110300310F50DF60DF70DFF3E031D9C
:1001B200D3287508F0047608F1047708F20474086D
:1001C20003190800F21708002F08B3003008B40022
:1001D2003108B5000310340D350DFF007F08BB0058
:1001E2003B08031DFD280030B2000030B100003092
:1001F200B0000030AF0008002F08B3003008B40090
:100202003108B50017300310B50CB40CB30CFF3E27
:10021200031D04293308FF007F08B600B017FF3022
:10022200AF05FF30B0050030B1052F08B700300828
:10023200B8003108B900BA018E30BB02BB1F3629A3
:100242003B08803A8F3E031CF42801300310BA0C9D
:10025200B90CB80CB70CFF3E031D27290130FF0073
:100262007F08BB0703194929262918303B020318C6
:10027200F4283B08031949290130B3000310B70DD4
:10028200B80DB90DBA0DB30B3F290130BB023A29A3
:10029200360803195729B709B809B909BA09B70ABB
:1002A2000319B80A0319B90A0319BA0A3A08B200BB
:1002B2003908B1003808B0003708AF00080032082A
:1002C200B5003308B6003408B7000310360D370DF9
:1002D200FF007F08BC003C08031D76290030AF00F8
:1002E2000030B0000030B10008002F08B50030081F
:1002F200B6003108B7000310360D370DFF007F0836
:10030200BD003D08031D8C290030AF000030B00055
:100312000030B10008000030B9000030BA000030EF
:10032200BB0089303D07B5003508BC023408FF0028
:100332007F08BD003108FF007F08BD068030FF0046
:100342007F08BD05B317FF30B205FF30B30500309B
:10035200B405B017FF30AF05FF30B0050030B1056E
:100362001830FF007F08B80001300310B90DBA0D34
:10037200BB0DFF3E031DB62931083402031DC729F8
:1003820030083302031DC7292F083202031CD42967
:100392002F08B2023008031C300FB3023108031CCD
:1003A200310AB402391401300310B20DB30DB40D89
:1003B200FF3E031DD5290130B802031DB5293908B6
:1003C200F0003A08F1003B08F2003C08FF007F0809
:1003D200F3003D08FF007F08F4000A128A11792019
:1003E2007008AF007108B0007208B1000800F20096
:1003F20083120313071287127208F00007300310EA
:10040200F00CFF3E031D002A01307005F1000708C1
:100412007106FE39710687007208F000063003107B
:10042200F00CFF3E031D102A70080139F100F10D96
:1004320007087106FD39710687007208F000053061
:100442000310F00CFF3E031D212A70080139F10050
:10045200F10DF10D07087106FB397106870072086C
:10046200F00004300310F00CFF3E031D332A700825
:100472000139F100F10DF10DF10D07087106F7399F
:100482007106870007160830F000F00B462A831227
:10049200031307127208F00003300310F00CFF3E42
:1004A200031D4E2A01307005F10007087106FE395E
:1004B200710687007208F00002300310F00CFF3E54
:1004C200031D5E2A70080139F100F10D070871065B
:1004D200FD39710687007208F0000310700C0139B3
:1004E200F100F10DF10D07087106FB397106870065
:1004F20072080139F000F00DF00DF00D07087006DA
:10050200F7397006870007160830F000F00B872ACB
:100512008312031307122430F100B530F000F00B00
:10052200902AF10B902A952A0800F20007128716EA
:100532007208F00007300310F00CFF3E031D9C2AE6
:1005420001307005F10007087106FE397106870057
:100552007208F00006300310F00CFF3E031DAC2AB7
:1005620070080139F100F10D07087106FD397106B5
:1005720087007208F00005300310F00CFF3E031DE7
:10058200BD2A70080139F100F10DF10D070871065D
:10059200FB39710687007208F00004300310F00C7A
:1005A200FF3E031DCF2A70080139F100F10DF10D54
:1005B200F10D07087106F739710687000716083032
:1005C200F000F00BE22A8312031307127208F00004
:1005D20003300310F00CFF3E031DEA2A01307005C0
:1005E200F10007087106FE39710687007208F000F3
:1005F20002300310F00CFF3E031DFA2A7008013985
:10060200F100F10D07087106FD39710687007208C5
:10061200F0000310700C0139F100F10DF10D070823
:100622007106FB397106870072080139F000F00D7E
:10063200F00DF00D07087006F739700687000716EF
:100642000830F000F00B232B83120313071208303B
:10065200F000F00B2A2B2430F100B530F000F00B43
:10066200302BF10B302B352B080083160710871027
:1006720007118711071287128312071087100711BB
:100682008711071287122430F400B530F300F30B00
:10069200482BF40B482B4D2B2430F400B530F300DB
:1006A200F30B512BF40B512B562B2430F400B530A5
:1006B200F300F30B5A2BF40B5A2B5F2B2430F4006C
:1006C200B530F300F30B632BF40B632B682B243050
:1006D200F400B530F300F30B6C2BF40B6C2B712B85
:1006E2002430F400B530F300F30B752BF40B752BAB
:1006F2007A2BF501F50A83120313071087100715E9
:100702008715071287120710871007158715071616
:1007120087120830F300F30B8C2B8312031307109C
:10072200871007158715071287122430F400B53099
:10073200F300F30B9A2BF40B9A2B9F2B0130FF0043
:100742007F08F50704307502031C7C2B8312031308
:1007520007108710071587110712871207108710D5
:1007620007158711071687120830F300F30BB72B12
:1007720083120313071087100715871107128712B8
:100782002430F400B530F300F30BC52BF40BC52B6A
:10079200CA2B28300A128A11F8210A128A11103043
:1007A2000A128A11F8210A128A1101300A128A11D8
:1007B200F8210A128A110F300A128A11F821080050
:1007C2002008A6002108A7002208A8000310270D70
:1007D200280DFF007F08A9002908031DF72B003010
:1007E200A0000030A1000030A20008002308A600EB
:1007F2002408A7002508A8000310270D280DFF00D4
:100802007F08AE002E08031D0D2C0030A000003022
:10081200A1000030A20008002E087B3EFF007F08E6
:10082200A9072208FF007F08AE002508FF007F0805
:10083200AE068030FF007F08AE05A117A417FF3077
:10084200A305FF30A4050030A5050030AA00003042
:10085200AB000030AC000730FF007F08AD00201C69
:10086200402C2308AA07240803110318240A031D95
:10087200AB07250803110318250A031DAC07013035
:100882000310A20CA10CA00CFF3E031D412C013051
:100892000310A30DA40DA50DFF3E031D492C01302D
:1008A200AD02031D302C0930FF007F08AD00201C73
:1008B200682C2308AA07240803110318240A031D1D
:1008C200AB07250803110318250A031DAC070130E5
:1008D2000310A20CA10CA00CFF3E031D692C0130D9
:1008E2000310AC0CAB0CAA0CFF3E031D712C0130A3
:1008F200AD02031D582C2A08F0002B08F1002C0829
:10090200F2002908FF007F08F3002E08FF007F088D
:10091200F4000A128A1179207008A0007108A1005F
:100922007208A20008003E089F001F143130FC002C
:10093200FC0B992C9C2C831203131F151F199F2C3F
:100942001F101E08FC00FD017C08D8007D08D9009C
:100952005908FD005808FC007C08FD00FC017C08D9
:10096200D8007D08D90083161E0883125807FC00A0
:1009720059080318590AFD007C08D8007D08D900DF
:100982000030AF008030B0004430B1000030A00031
:10099200A030A1004030A2005908F9005808F80020
:1009A2000A128A15E2260A128A117808A300790827
:1009B200A4007A08A5000A128A11E1230A128A11F8
:1009C2002008B2002108B3002208B4000A128A11DA
:1009D20060210A128A112F08C7003008C8003108A6
:1009E200C90040303E063F04031D252D4708A300E1
:1009F2004808A4004908A5000030A000C830A100A2
:100A02004230A2000A128A11E1230A128A11200836
:100A1200AF002108B0002208B1000A128A11E520B5
:100A22000A128A113008D7002F08D6005430FF006E
:100A32007F08A0005708A2005608A10066300A12DB
:100A42008A1157250A128A1148303E063F04031DB7
:100A520008004708A3004808A4004908A500003080
:100A6200A000C830A1004230A2000A128A11E1237C
:100A72000A128A112008AF002108B0002208B10032
:100A82000A128A11E5200A128A113008D5002F08AD
:100A9200D4005430FF007F08A0005508A20054087B
:100AA200A10060300A128A1157250800AB002130DC
:100AB200FF007F08A6000130A007FF302007840056
:100AC2000A128A110D200A128A11FF007F08AC0057
:100AD2002C0803191E2E25302C0603197C2D2C08F8
:100AE200FF002B0884007F08831380000130FF0081
:100AF2007F08AB075C2DA7010130A007FF3020075C
:100B020084000A128A110D200A128A11AC00003ADE
:100B120003191E2E643A0319922D0D3A0319922DD0
:100B22005C2D2608840083130008A900840A0008AB
:100B3200AA000230FF007F08A607AA1FA92D0330D2
:100B4200FF007F08A704A909AA09A90A0319AA0A8A
:100B5200AC01AC0A2C08A3002307013E84000A1250
:100B62008A110D200A128A11A4000A128A110D207C
:100B72000A128A11A50025082A02031DC22D240883
:100B82002902031CCC2D0130FF007F08AC07053081
:100B92002C06031DAB2D270803390319DB2D2D303D
:100BA200FF002B0884007F08831380000130FF00C0
:100BB2007F08AB072C08FF007F08A800FF30FF006A
:100BC2007F08A807280A03195C2D0A30F7000030B5
:100BD200F8002808A3002307013E84000A128A11A4
:100BE2000D200A128A11F0000A128A110D200A122F
:100BF2008A11F1002A08F3002908F2000A128A1564
:100C020035270A128A117108FA007008F9000A12CF
:100C12008A1503270A128A117708303EFF007F08DF
:100C2200AC002C08FF002B0884007F08831380008F
:100C32000130FF007F08AB07DF2D2B0884008313F0
:100C4200800108000A128A1571270A128A11C32F1D
:100C520001300A128A11F8210A128A11F301F30AE9
:100C62004A30F4008030F50001300A128A15B827A4
:100C72000A128A11F301F30A3A30F4008030F500C7
:100C820002300A128A15B8270A128A110B30FF00A5
:100C92007F08F3005030F4008030F50002300A1271
:100CA2008A15B8270A128A110130092F4E084F04FB
:100CB200031DA02E073083120313C2005830C10057
:100CC2005930C000C00B632EC10B632EC20B632EC2
:100CD200831203135008013ED00051080318013E4D
:100CE200003ED1005108803AFF0080307F02031D90
:100CF2007C2E3D305002031C822E83120313D0013E
:100D0200D1015430FF007F0883120313A000510861
:100D1200A2005008A1005A300A128A1157250A125D
:100D22008A110930FF007F08F3005A30F4000030C6
:100D3200F50002300A128A15B8270A128A114C08E5
:100D42004D04031DDE2E073083120313C2005830F8
:100D5200C1005930C000C00BAC2EC10BAC2EC20B6F
:100D6200AC2E831203135008FF3ED0005108031823
:100D7200013EFF3ED100D11FC22E3C30D0000030D8
:100D8200D1005430FF007F08A0005108A200500893
:100D9200A1005A300A128A1157250A128A11093003
:100DA200FF007F08F3005A30F4000030F5000230F3
:100DB2000A128A15B8270A128A114A084B04031D1F
:100DC200C32F073083120313C2005830C1005930B9
:100DD200C000C00BEA2EC10BEA2EC20BEA2E023073
:100DE20083120313092F01300A128A11F8210A1201
:100DF2008A110530FF007F08F3002530F4008030AF
:100E0200F50001300A128A15B8270A128A11033036
:100E1200D2000030D300C32F4030BE000030BF00EC
:100E22000A128A1194240A128A114830BE00003034
:100E3200BF000A128A1194240A128A11F301F30ADA
:100E42000B30F4008030F50002300A128A15B82700
:100E52000A128A110F30FF007F08F3006630F40097
:100E62000030F50002300A128A15B8270A128A11D8
:100E7200F301F30A3030F4008030F50003300A1237
:100E82008A15B8270A128A110B30FF007F08F30077
:100E92006030F4000030F50003300A128A15B827DA
:100EA2000A128A115708803AFF0080307F02031D20
:100EB2005C2F1E305602031C8A2F83120313081460
:100EC200C301C4014408803AC0005108803A40027C
:100ED200031D6D2F500843020318872F1A30831207
:100EE2000313C2005E30C1006D30C000C00B772F0B
:100EF200C10B772FC20B772F7E2F01308312031382
:100F0200C3070318C40A0030C407632F83120313F4
:100F12000810831203135508803AFF0080307F02C5
:100F2200031D952F1F3054020318C32F831203137E
:100F32000814C501C6014608803AC0005108803A2B
:100F42004002031DA62F500845020318C02F1A3075
:100F520083120313C2005E30C1006D30C000C00BAB
:100F6200B02FC10BB02FC20BB02FB72F013083129D
:100F72000313C5070318C60A0030C6079C2F831245
:100F8200031308108312031306080139C000C101BC
:100F92004008CE004108CF00060C0139C000C10153
:100FA2004008CC004108CD00060CC000400C0139BD
:100FB200C100C2014108CA004208CB005308003AEE
:100FC2000319E42FC32F5208003A0319292E013ABC
:100FD2000319572E033A0319F42E013A03190D2F60
:100FE200C32F0A128A1100288313473084006C3001
:0E0FF2000A128A11712083010A128A11232E1D
:101DC400FB01F91FEC2EF809F909F80A0319F90ABD
:101DD400FB01FB0A7808F0007908F100F2018E306B
:101DE400FF007F08F3007B08FF007F08F4000A125D
:101DF4008A1179207008F8007108F9007208FA0055
:101E04000800770878040319302FFB01FB0AF81B3C
:101E1400172F01300310F70DF80DFF3E031D0C2F93
:101E24000130FF007F08FB07092F78087A02031DA1
:101E34001D2F77087902031C252F7708F9027808EB
:101E4400031CFA03FA0201300310F80CF70CFF3EEE
:101E5400031D262F0130FB02031D172F7A08F800FB
:101E64007908F7000800F401F501700871040319FA
:101E74006C2FF601F60AF11B4B2F01300310F00D05
:101E8400F10DFF3E031D402F0130FF007F08F607D0
:101E94003D2F01300310F40DF50DFF3E031D4C2FB3
:101EA40071087302031D582F70087202031C612FFE
:101EB4007008F2027108031CF303F3027414013076
:101EC4000310F10CF00CFF3E031D622F0130F602EB
:101ED400031D4B2F7508F1007408F00008000A1266
:101EE4008A1136230A128A1501300A128A11F8213E
:101EF4000A128A150C300A128A11F8210A128A155C
:101F04000530FF007F08F3001930F4008030F5003D
:101F140001300A128A15B8270A128A150730FF0001
:101F24007F08F3004230F4008030F50002300A12DA
:101F34008A15B8270A128A153330FA00BB30F90023
:101F4400DF30F800F80BA42FF90BA42FFA0BA42F01
:101F5400AB2F8030831603139F008113FF3086005C
:101F6400880183120810061486140800F600C92F8D
:101F740073087F3EC52F7308BF3EC52F7308933E79
:101F8400C52F7308D33EFF007F08F700D72F7608CC
:101F9400013A0319BA2F033A0319BD2F013A031961
:101FA400C02F073A0319C32FD72F77080A128A11B3
:101FB400F8210A128A15750883120313FF007408A6
:101FC40084000A128A1103200A128A15003A03199E
:101FD40008007508FF00740884000A128A1103209F
:101FE4000A128A150A128A1196220A128A150130D7
:0C1FF400F4070318F50A0030F507DD2F94
:02400E00FA3F77
:00000001FF
